:100000000C94D5000C94FD000C94FD000C94FD00A4
:100010000C94FD000C94FD000C94FD000C94FD006C
:100020000C94FD000C94FD000C9488040C94F704CF
:100030000C94FD000C94FD000C94FD000C94FD004C
:100040000C94FD000C94FD000C94FD000C94FD003C
:100050000C94FD000C94FD000C94FD000C943E04E7
:100060000C94FD000C94FD000C94FD000C94FD001C
:100070000C94FD000C94FD000C94FD000C94FD000C
:100080000C94FD000C94FD000C94FD000C94FD00FC
:100090000C94FD000C94FD000C94FD000C94FD00EC
:1000A0000C94FD000C94FD000C94FD00080B000264
:1000B0000202000009040000010202000005240001
:1000C0001001052401010104240206052406000193
:1000D0000705810310004009040100020A00000026
:1000E00007050202400000070583024000000403E8
:1000F000090412010002EF02014041233680000191
:100100000102030141726475696E6F204C4C43001B
:1001100041726475696E6F204C656F6E6172646FB9
:100120000000000000240027002A002D00300000FD
:100130000000002300260029002C002F00000000F2
:1001400000250028002B002E0031000404040404C4
:10015000030405020202020403020202020606066A
:100160000606060404020202040404080201104008
:100170008040102040804080080204018040201010
:100180000201108010204040200000000200090FF2
:100190000000030401000C0000000000000000004B
:1001A0000000000000000000290711241FBECFEF4F
:1001B000DAE0DEBFCDBF11E0A0E0B1E0EEE0F2E1B9
:1001C00002C005900D92AE35B107D9F721E0AEE53A
:1001D000B1E001C01D92A73DB207E1F710E0C5ED07
:1001E000D0E004C02197FE010E94EB08C43DD10776
:1001F000C9F70E943E070C9405090C940000FC010D
:1002000080918601882311F13FB7F89482E08093B2
:10021000E9002091F200822F90E01816190614F4DC
:1002200081E090E0882339F0289844E640938501E6
:100230004091F1004083222339F02091F2002111F6
:1002400003C02BE62093E8003FBF08958FEF9FEF98
:1002500008952FB7F89483E08093E9009091E80027
:10026000892F807295FF04C09091F20080E4891B71
:100270002FBF089580917D0181110DC082E0809390
:10028000790184E080937A0110927C0110927B01C5
:1002900081E080937D0189E791E0089581508F305E
:1002A00008F047C0E82FF0E0E85AFE4F0C94EB0846
:1002B0007501790167016D01710199019901990138
:1002C0007C01820186018A0190019901940180914B
:1002D00080008F77809380000895809180008F7DCB
:1002E000F9CF80918000877FF5CF84B58F7784BD6B
:1002F000089584B58F7DFBCF809190008F77809398
:1003000090000895809190008F7DF9CF80919000AA
:10031000877FF5CF8091C0008F778093C0000895CC
:100320008091C0008F7DF9CF8091C200877F80933C
:10033000C20008951F93CF93DF93E6E9F1E0949113
:10034000E7E7F1E0D491E8E5F1E0C491CC23B9F01E
:10035000182F992319F0892F0E944E01EC2FF0E0FD
:10036000EE0FFF1FE35CFE4FA591B4918FB7F89499
:10037000EC91111108C0D095DE23DC938FBFDF9183
:10038000CF911F910895DE2BF8CFCF93DF93282FC5
:1003900030E0F901E757FE4F8491F901E659FE4F2D
:1003A000D491F901E55BFE4FC491CC23A1F08111FA
:1003B0000E944E01EC2FF0E0EE0FFF1FE15DFE4FBB
:1003C000A591B491EC91ED2381E090E009F480E0F7
:1003D000DF91CF91089580E090E0FACFCF93DF9343
:1003E00090E0FC01E659FE4F2491855B9E4FFC0195
:1003F00084918823D1F090E0880F991FFC01EF5D74
:10040000FE4FA591B491FC01E35CFE4FC591D491E0
:1004100061110EC09FB7F8948C91E22FE0958E2366
:100420008C932881E223E8839FBFDF91CF910895C9
:100430008FB7F894EC91E22BEC938FBFF6CF3FB7D8
:10044000F8948091750190917601A0917701B09117
:10045000780126B5A89B05C02F3F19F00196A11D74
:10046000B11D3FBFBA2FA92F982F8827BC01CD01FE
:10047000620F711D811D911D42E0660F771F881F5D
:10048000991F4A95D1F70895CF92DF92EF92FF928C
:100490000E941F026B017C010E941F026C197D09E2
:1004A0008E099F09683E734081059105A8F3FF906E
:1004B000EF90DF90CF90089540916A0150916B01C9
:1004C000209168013091690142175307B4F490916B
:1004D000E8009570E1F39091E80092FD19C08093D7
:1004E000F10080916A0190916B0101968F739927B9
:1004F000892B19F48EEF8093E80080916A01909126
:100500006B01019690936B0180936A0181E00895DD
:1005100080E00895EF92FF920F931F93CF93DF93A4
:10052000F82E192FE62E042F81E0860F880F0E94E7
:100530005C0283E00E945C02CF2DD12FEC0EFD2ED9
:10054000F11CCE15DF05B9F007FF13C0FE01849141
:100550000E945C02182F80E00E945C028123219699
:100560008111EFCFDF91CF911F910F91FF90EF900D
:1005700008958881EDCF81E0F5CFDF92EF92FF9271
:100580000F931F93CF93DF93D82E8A01EB017B014A
:10059000E40EF51ECE15DF0559F0D7FE12C0FE01A0
:1005A00084910E945C0221968111F4CF0FEF1FEF1E
:1005B000C801DF91CF911F910F91FF90EF90DF90D5
:1005C00008958881EECF0F931F93CF93DF931F92EF
:1005D000CDB7DEB782E0898342E450E06CEA70E098
:1005E00080E80E94BD020E943A01DC0112960D9142
:1005F0001C910115110589F0D801ED91FC91028043
:10060000F381E02DBE016F5F7F4FC801099597FD13
:1006100004C0F80100851185ECCF89810F90DF912E
:10062000CF911F910F910895615030F02091F1000A
:10063000FC0120830196F8CF289884E680938501F9
:1006400008958F929F92AF92BF92CF92DF92EF92D6
:10065000FF920F931F93CF93DF936C017B018A016D
:1006600080910B01882309F458C08091860188236A
:1006700009F453C080916E0180FF05C08091E000B5
:1006800082608093E000E801B12C8AEFA82E93E00D
:10069000892E2AE3922E209711F4BB20B9F10E94F3
:1006A0002901811106C0AA94AA20B9F10E9444022E
:1006B000F2CF8C171D0611F00CF08C2F9FB7F89419
:1006C0008092E9002091E80025FD02C09FBFE3CFA2
:1006D000282F30E0C21BD30BF701815020F041914D
:1006E0004093F100FACFE20EF31EBB2021F090926E
:1006F000E800B12CEBCF8091E80085FDE7CF909228
:10070000E800BB24B394209709F3F3CF5D9884E607
:1007100080936F01101611063CF081E090E0F60125
:100720009383828310E000E0C801DF91CF911F9195
:100730000F91FF90EF90DF90CF90BF90AF909F9080
:100740008F900895CF93DF931F92CDB7DEB7698363
:10075000DC01ED91FC910280F381E02D41E050E05D
:10076000BE016F5F7F4F09950F90DF91CF91089584
:1007700083E08093E9008091F200882319F08AE3F6
:100780008093E80008950E94290190E00895CF9396
:10079000DF931F92CDB7DEB7FC018485958597FD69
:1007A00008C02FEF3FEF358724870F90DF91CF915F
:1007B0000895CE0101960E94FF00019719F48981E6
:1007C00090E0F3CF8FEF9FEFF0CF0F931F93CF9376
:1007D000DF931F92CDB7DEB78C01FC018485958530
:1007E00097FF0BC0CE0101960E94FF00019771F4A4
:1007F000898190E0F80195878487F8018485958543
:100800000F90DF91CF911F910F9108958FEF9FEF80
:10081000F1CFFC018485958597FD0BC09FB7F894B7
:1008200082E08093E9008091F2009FBF90E0019602
:1008300008959FB7F89482E08093E9008091F200D8
:100840009FBF90E00895FC0101900020E9F73197E7
:10085000AF01481B590BBC0187E891E00C942103C0
:10086000CF93DF930E942304EC0185E291E00E9484
:1008700023048C0F9D1FDF91CF9108951F920F923B
:100880000FB60F9211242F933F938F939F93AF93A3
:10089000BF938091710190917201A0917301B09109
:1008A00074013091700123E0230F2D3758F5019624
:1008B000A11DB11D2093700180937101909372016D
:1008C000A0937301B09374018091750190917601AA
:1008D000A0917701B09178010196A11DB11D80937F
:1008E000750190937601A0937701B0937801BF9141
:1008F000AF919F918F913F912F910F900FBE0F90CD
:100900001F90189526E8230F0296A11DB11DD2CF86
:100910001F920F920FB60F9211248F939F93809185
:10092000E1009091E100937F9093E10083FF0FC07D
:100930001092E90091E09093EB001092EC0092E3AA
:100940009093ED001092860198E09093F00082FF62
:1009500022C093E09093E9009091F200992319F05E
:100960009AE39093E80090916F01992341F0909160
:100970006F01915090936F01911101C05D9A909118
:100980008501992341F090918501915090938501C3
:10099000911101C0289A84FF18C08091E2008E7ED8
:1009A00081608093E2008091E1008F7E8093E1007E
:1009B00080916E018E7E806180936E019F918F91F8
:1009C0000F900FBE0F901F90189580FFF7CF80916A
:1009D000E2008E7E80618093E2008091E1008E7E55
:1009E0008093E10080916E018E7E8160E5CF1F9241
:1009F0000F920FB60F921124CF92DF92EF92FF92D7
:100A00000F931F932F933F934F935F936F937F9316
:100A10008F939F93AF93BF93EF93FF93CF93DF9306
:100A2000CDB7DEB76C97DEBFCDBF1092E9008091E5
:100A3000E80083FF25C068E0CE0145960E941403BC
:100A400082EF8093E8008D8987FF39C09091E8009C
:100A500090FFFCCF982F907609F034C19E894F8982
:100A6000588D2F89F88C911131C0803861F58091B3
:100A70006D018093F1001092F1008EEF8093E800F9
:100A80006C960FB6F894DEBF0FBECDBFDF91CF914D
:100A9000FF91EF91BF91AF919F918F917F916F9156
:100AA0005F914F913F912F911F910F91FF90EF9088
:100AB000DF90CF900F900FBE0F901F9018959EEF74
:100AC0009093E800C7CF1092F100D5CF913059F440
:100AD0008111D3CF4130510581F680916D018D7F19
:100AE00080936D01CACF933049F48111C6CF413054
:100AF000510519F680916D018260F2CF953041F475
:100B00008091E80080FFFCCF20682093E300B5CF00
:100B1000963009F0A9C00B8D1C8D22E01092E900DF
:100B200010926B0110926A01F2122EC010926901AC
:100B3000109268010E94E3021F8299E09983FA8271
:100B400091E09E8390EA98879AEF998720916A01B5
:100B500030916B01275F3F4F3C832B838D83109235
:100B6000E90010926B0110926A01109369010093E1
:100B7000680149E050E0BE016F5F7F4F80E00E9456
:100B8000BD020E94E30279CF1093690100936801CE
:100B90000E943A01DC0112960D911C91011511057C
:100BA00009F451C1D801ED91FC910480F581E02D4B
:100BB000BE016B5E7F4FC8010995009709F03EC1E9
:100BC000F80100851185EACFF3E0FF120EC08F898E
:100BD000882309F440C0823061F440E860E180E19C
:100BE00091E00E948A02811148CF81E28093EB005C
:100BF00047CF813029F440E86BE084E091E0F1CF09
:100C0000833099F70E943A01DC011296ED90FC9036
:100C10008E010F5F1F4F6801E114F10479F0D701D5
:100C2000ED91FC910680F781E02DB801C70109958F
:100C3000080F111DF701E084F184EECFD8011C925A
:100C4000F60101900020E9F73197BF016C197D0989
:100C500040E0C601C6CF6EEE70E0FB01449150E06B
:100C600080E80E94BD0209CF973009F4BECF9830CA
:100C700021F481E08093F10000CF993009F0FDCE9E
:100C8000837009F0B2CFEFE1F1E081E031E096E36B
:100C90002191222371F08093E9003093EB00DF0172
:100CA00011972C912093EC009093ED008F5F87308B
:100CB00079F78EE78093EA001092EA008F8980939B
:100CC0008601DBCE8B8D9C8D1092E90010926B011A
:100CD00010926A019093690180936801898D811156
:100CE00092C08E899D89913A49F4813209F07DCF75
:100CF00047E050E064E071E080E0B3CF913209F06A
:100D000074CF833269F48F89988DB0E0A0E080932E
:100D1000000190930101A0930201B0930301ADCEB5
:100D2000803269F48091E80082FFFCCF67E084E0C4
:100D300091E00E9414038BEF8093E8009ECE8232F4
:100D400009F09BCE8F8980930B01EEEFFFE7859131
:100D500094918B3F9C4D51F1E0E0F8E080910401CB
:100D600090910501A0910601B0910701803B94404C
:100D7000A105B105F1F480910B0180FD1AC0EE3F91
:100D80008AE0F80789F587E797E791838083809168
:100D9000600080936C0188E19BE00FB6F894A89501
:100DA000809360000FBE9093600067CEEEEFFAE094
:100DB000D5CF808191818737974709F05ECEA8957E
:100DC0008091600088618093600080916C018093C5
:100DD0006000EE3F2AE0F20789F08091FE0A9091D0
:100DE000FF0A9183808349CE80819181873798075C
:100DF00051F29093FF0A8093FE0AC5CF1092FF0A2A
:100E00001092FE0A3ACE0E943A01DC0112960D9130
:100E10001C910115110509F4E8CED801ED91FC9162
:100E20000190F081E02DBE016B5E7F4FC8010995F6
:100E3000811123CEF80100851185EBCF1816190614
:100E40000CF41BCED2CEF1E0FF12BECE62EF70E00A
:100E500004CFE7E8F1E01382128288EE93E0A0E08D
:100E6000B0E084839583A683B78380E191E091838A
:100E700080838FEF9FEF958784870895CF93DF93CB
:100E8000CDB7DEB7A1970FB6F894DEBF0FBECDBFCA
:100E9000789484B5826084BD84B5816084BD85B555
:100EA000826085BD85B5816085BD80916E00816061
:100EB00080936E0010928100809181008260809307
:100EC0008100809181008160809381008091800009
:100ED0008160809380008091910082608093910076
:100EE0008091910081608093910080919000816059
:100EF000809390008091C10084608093C1008091B4
:100F0000C10082608093C1008091C10081608093A4
:100F1000C1008091C30081608093C3008091C000B4
:100F200082608093C0008091C20081608093C20083
:100F300080917A00846080937A0080917A00826048
:100F400080937A0080917A00816080937A0080910A
:100F50007A00806880937A001092860110926D0169
:100F600010926E018091D70081608093D70080EA53
:100F70008093D80089B5806189BD89B5826089BDBB
:100F800009B400FEFDCF0E9444028091D8008F7CFE
:100F900080618093D8008091E000807F8093E000A2
:100FA0008091E1008E7E8093E1008DE08093E200ED
:100FB000559A209A60E080E00E94EE0161E08DE0A9
:100FC0000E94EE0160E082E00E94EE0160E083E0BA
:100FD0000E94EE018FEF9FEF909394018093930115
:100FE0008AE0E82EF12C9AE0892E912CA12CB12CCC
:100FF00020E0C22E20E0D22E80E00E94C5018C01AC
:10100000909367018093660182E00E94C5019093EE
:1010100065018093640183E00E94C50190936301A0
:101020008093620180916001909161010817190716
:1010300009F44BC00130110509F090C080915E01A8
:1010400090915F01019690935F0180935E01B701DB
:101050000E94B5088B01892BC1F58BE591E00E94B8
:10106000300488E291E00E9423042801012E000C44
:101070006608770817FF5CC06DE287E891E00E9480
:10108000A20322273327A901241935094609570944
:1010900019A28E010F5D1F4FCA01B901A50194016C
:1010A0000E94C908605DF80162938F012115310526
:1010B0004105510589F70115110519F0C8010E9474
:1010C000230485E291E00E942304809164019091C1
:1010D0006501019741F410925F0110925E0185E471
:1010E00091E00E9430048091620190916301019728
:1010F00021F483E591E00E94300480916601909193
:101100006701909361018093600180915E019091ED
:101110005F01B7010E94B508892B29F581E00E9483
:101120009A01C114D10409F467CF0E94000064CF72
:10113000A301920119A28E010F5D1F4FCA01B901CF
:10114000A50194010E94C908605DF80162938F01B6
:10115000211531054105510589F7ADCF81E491E0B5
:101160000E943004B2CF80E0DACF97FB072E16F44E
:10117000009407D077FD09D00E94F10807FC05D044
:101180003EF4909581959F4F0895709561957F4F9E
:101190000895A1E21A2EAA1BBB1BFD010DC0AA1FB8
:1011A000BB1FEE1FFF1FA217B307E407F50720F0D0
:1011B000A21BB30BE40BF50B661F771F881F991F4B
:1011C0001A9469F760957095809590959B01AC0194
:1011D000BD01CF010895EE0FFF1F0590F491E02DA2
:1011E0000994AA1BBB1B51E107C0AA1FBB1FA6176E
:1011F000B70710F0A61BB70B881F991F5A95A9F7C0
:0E12000080959095BC01CD010895F894FFCF24
:10120E00FFFFFFFF00E100000000000000000000F3
:10121E00A2032103C303B8030904C703E50300C1F6
:10122E0080810000000D0A006E756D626572206F80
:10123E0066207265766F6C7574696F6E733A2020D6
:10124E00006F666600436F756E746572207265730B
:0E125E00657400456E636F646572206F6E00EC
:00000001FF
